:100000000C9446000C9465000C9465000C946500FB
:100010000C9465000C9465000C9465000C946500CC
:100020000C9465000C9465000C9465000C946500BC
:100030000C9465000C9465000C9465000C946500AC
:100040000C9465000C9465000C9465000C9465009C
:100050000C9465000C9465000C9465000C9465008C
:100060000C9465000C9465000C9465000C9465007C
:100070000C9465000C9465000C9465000C9465006C
:100080000C9465000C9465000C94650011241FBE4F
:10009000CFEFD0E4DEBFCDBF11E0A0E0B1E0E2EDF4
:1000A000F8E000E00BBF02C007900D92A233B10749
:1000B000D9F721E0A2E3B1E001C01D92A334B20759
:1000C000E1F70E947C020C9467040C940000CF932B
:1000D000DF9300D01F92CDB7DEB789837B836A831D
:1000E00089818A3031F48A819B81BC018DE00E9434
:1000F000670080EC90E0FC018081882F90E08072A6
:100100009927892BB1F386EC90E02981FC012083AB
:1001100080E090E00F900F900F90DF91CF910895C5
:100120000F931F93CF93DF9300D000D0CDB7DEB7EE
:1001300069837A838B839C838091390190913A0102
:10014000A0913B01B0913C019C01AD0169817A8194
:100150008B819C810E94D302882309F477C020E020
:1001600030E0A90169817A818B819C810E94D30250
:10017000882351F481E990E021E930E0F901208100
:100180002870FC01208309C081E990E021E930E07A
:10019000F90120812360FC01208328E539E344E74D
:1001A0005FE369817A818B819C810E94D3028823DD
:1001B00044F488E990E02FEF3FEFFC013183208386
:1001C00034C020E034E244EF56E469817A818B81C7
:1001D0009C810E94F503181634F488E990E0FC0134
:1001E0001182108222C008E910E020E030E040E0F7
:1001F00053E469817A818B819C810E94FA03DC013E
:10020000CB019C01AD0160E074E284EF9AE40E94AE
:10021000D802DC01CB01BC01CD010E944A03DC0104
:10022000CB010197F8019183808384E990E0FC0180
:100230001182108289819A81AB81BC8180933901BE
:1002400090933A01A0933B01B0933C0100000F90C2
:100250000F900F900F90DF91CF911F910F91089504
:10026000CF93DF93CDB7DEB780E990E020E4FC01C7
:10027000208381E990E02BE0FC01208360E070E0C6
:10028000CB010E9490000000DF91CF910895CF93A1
:10029000DF93CDB7DEB780E990E0FC01108281E901
:1002A00090E0FC0110820000DF91CF910895CF9380
:1002B000DF93CDB7DEB780913D0190913E01823052
:1002C000910509F443C08330910528F4009779F033
:1002D0000197A1F090C08430910509F473C0843077
:1002E000910508F451C0059709F47EC084C081E0EF
:1002F00090E090933E0180933D017DC0809140014C
:10030000813039F482E090E090933E0180933D018A
:1003100072C080914001823039F483E090E0909384
:100320003E0180933D0167C080914001843039F4E3
:1003300085E090E090933E0180933D015CC081E0B8
:1003400090E090933E0180933D0155C0809136012D
:10035000882F90E0880F991F880F991F825F9E4F0A
:10036000FC0180819181A281B381809332019093BD
:100370003301A0933401B093350184E090E0909371
:100380003E0180933D0137C080913601882F90E077
:10039000880F991F880F991F825F9E4FFC018081F3
:1003A0009181A281B3818093320190933301A09314
:1003B0003401B093350184E090E090933E01809346
:1003C0003D0119C080914001882339F481E090E01B
:1003D00090933E0180933D010EC084E090E09093A5
:1003E0003E0180933D0107C084E090E090933E0180
:1003F00080933D01000080913D0190913E0182304B
:100400009105A1F08330910538F4009709F46DC08F
:10041000019709F46CC06CC08430910541F18430BF
:100420009105A8F0059709F446C062C08091360195
:10043000882F90E00196089724F087E0809336019A
:1004400057C0809136018F5F8093360151C08091F3
:100450003601882F90E0019799231CF41092360101
:1004600047C08091360181508093360141C0809110
:100470003601882F90E0880F991F880F991F825F9F
:100480009E4FFC0180819181A281B38180933201D2
:1004900090933301A0933401B093350180913201E0
:1004A00090913301A0913401B0913501BC01CD018F
:1004B0000E9490001DC080913701882361F00E9446
:1004C0004701809136018093380188E0809336019E
:1004D000109237010DC00E94300180913801809345
:1004E000360181E08093370103C0000001C00000A5
:1004F0000000DF91CF910895CF93DF93CDB7DEB7A2
:1005000081E290E0FC01108282E290E02FEFFC019A
:10051000208384E290E02FEFFC01208385E290E0CD
:10052000FC01108210923E0110923D010E943001A8
:1005300081E08093370180E290E0FC01808180952A
:1005400087708093400180E290E0FC018081882FD9
:1005500090E08170992721E0892B09F020E0822F1B
:100560008093420180E290E0FC018081882F90E03E
:1005700080959095827099279595879580933F01F6
:1005800080E290E0FC018081882F90E0809590953A
:1005900084709927959587959595879580934101C6
:1005A0000E945701C8CF0E94800308F481E008959B
:1005B0000E94EC020C94BB030E94B40358F00E940A
:1005C000AD0340F029F45F3F29F00C94A4035111CE
:1005D0000C94EF030C94AA030E94CC0368F39923B4
:1005E000B1F3552391F3951B550BBB27AA2762172F
:1005F0007307840738F09F5F5F4F220F331F441F3C
:10060000AA1FA9F335D00E2E3AF0E0E832D091506F
:100610005040E695001CCAF72BD0FE2F29D0660F5C
:10062000771F881FBB1F261737074807AB07B0E89F
:1006300009F0BB0B802DBF01FF2793585F4F3AF0A5
:100640009E3F510578F00C94A4030C94EF035F3F98
:10065000E4F3983ED4F3869577956795B795F7952B
:100660009F5FC9F7880F911D9695879597F9089513
:10067000E1E0660F771F881FBB1F621773078407AF
:10068000BA0720F0621B730B840BBA0BEE1F88F7BE
:10069000E09508950E9451036894B1110C94EF0302
:1006A00008950E94D40388F09F5798F0B92F992796
:1006B000B751B0F0E1F0660F771F881F991F1AF04D
:1006C000BA95C9F714C0B13091F00E94EE03B1E0C1
:1006D00008950C94EE03672F782F8827B85F39F0C0
:1006E000B93FCCF3869577956795B395D9F73EF4E6
:1006F00090958095709561957F4F8F4F9F4F08958E
:10070000990F0008550FAA0BE0E8FEEF1616170622
:10071000E807F907C0F012161306E407F50798F08A
:10072000621B730B840B950B39F40A2661F0232BA3
:10073000242B252B21F408950A2609F4A140A6951F
:100740008FEF811D811D089597F99F6780E870E004
:1007500060E008959FEF80EC089500240A94161637
:10076000170618060906089500240A94121613069F
:10077000140605060895092E0394000C11F488232D
:1007800052F0BB0F40F4BF2B11F460FF04C06F5F49
:100790007F4F8F4F9F4F089557FD9058440F551F1F
:1007A00059F05F3F71F04795880F97FB991F61F0F3
:1007B0009F3F79F087950895121613061406551F6A
:1007C000F2CF4695F1DF08C0161617061806991FD6
:1007D000F1CF86957105610508940895E894BB27CB
:1007E00066277727CB0197F908950E94800308F4C4
:1007F0008FEF08950E940D040C94BB030E94AD037B
:1008000038F00E94B40320F0952311F00C94A40357
:100810000C94AA0311240C94EF030E94CC0370F3F0
:10082000959FC1F3950F50E0551F629FF001729F95
:10083000BB27F00DB11D639FAA27F00DB11DAA1FA4
:10084000649F6627B00DA11D661F829F2227B00DF1
:10085000A11D621F739FB00DA11D621F839FA00D7C
:10086000611D221F749F3327A00D611D231F849FCC
:10087000600D211D822F762F6A2F11249F57504023
:100880009AF0F1F088234AF0EE0FFF1FBB1F661F9E
:10089000771F881F91505040A9F79E3F510580F067
:1008A0000C94A4030C94EF035F3FE4F3983ED4F35D
:1008B000869577956795B795F795E7959F5FC1F70B
:1008C000FE2B880F911D9695879597F90895F894BA
:0208D000FFCF58
:1008D2000000000200000000670000000000A4D039
:1008E20082437BD49243A4D0A443719DAE430000C3
:1008F200C4430000DC43A4F0F64300D002440000ED
:020902000000F3
:00000001FF
